:020000040000FA
:06000000A9EF0EF0120052
:0600080005EF0CF01200F0
:0600180050EF0CF0120095
:020028000000D6
:06002A00D9CFE6FFE1CF93
:10003000D9FFE652A0940F015F6B626A536B020E08
:10004000E66EE66AE66A540EE66E0F0EE66E7FEC2A
:100050000EF00B6E050EE15E0B50160E616E0F0179
:100060009F0E5B6F7B0E606EDF6ADF500B6E0C6A5B
:100070000C0E0B5C000E0C5810E2DF50040DF3CF99
:10008000E9FFF4CFEAFF000EE926020EEA22EE6A4B
:10009000EE6AEE6AEE6ADF2AE8D7648C0F015C6BC9
:1000A0006498649C62A607D062960101586B5D6BF0
:1000B0005E6B5F6BF7D70101010E716F726F736B2F
:1000C000746B656BDF6A030EDF5C26E2EA6ADF347D
:1000D000FE0BEA36E96E4E0EE926010EEA22EE6AC2
:1000E000ED6AEA6ADF34FE0BEA36E96E480EE9266D
:1000F000010EEA22EE6AED6ADF50EA6A690FE96EE4
:10010000010EEA22EF6ADF50EA6A6C0FE96E010E17
:10011000EA22EF6ADF2AD7D70101080E4E6F020EDE
:100120004F6F0F01160E536F0201300E026F020E59
:10013000036F080E016F840E006F0101416B406B6D
:10014000E552E552E7CFD9FF1200D9CFE6FFE1CF64
:10015000D9FFE6520101400507E164BA05D0626AA1
:1001600060806088020E406F6250040B06E06050B1
:10017000040B03E06294B2EC06F064A202D0A194F6
:1001800091D06250010B09E06050010B06E04DDF99
:10019000A0840101040E406F62906250100B06E0D3
:1001A0006050100B03E09DEC06F0629862AC12D038
:1001B00060AC0FD0010EE66EE66A000EE66EE66AEF
:1001C000730EE66EE66A9DEC0DF00B6E060EE15EB8
:1001D0000B50629C6250200B05E06050200B02E047
:1001E00083EC06F06250020B14E06050020B11E049
:1001F000010EE66EE66A000EE66EE66AE6687F0EBF
:10020000E66E9DEC0DF00B6E060EE15E0B500F01DD
:100210005F6B040E0101E76E4019E8AE02D0E734CF
:1002200002D0E750405D02E2A1943CD060A639D0F4
:10023000DF6A040EDF5C35E262A632D063CF66F17E
:1002400001016651780BE842E842E842676F629626
:1002500066B508D06751EA6A6C0FE96E010EEA22B2
:10026000EF7007D06751EA6A690FE96E010EEA2262
:10027000EF70675103E1C9EC06F010D0000EE66E96
:10028000E66A660EE66E010EE66E720EE66EE66ACF
:100290009DEC0DF00B6E060EE15E0B50DF2AC9D708
:1002A00000D0A194E552E552E7CFD9FF1200D9CF93
:1002B000E6FFE1CFD9FF020EE126FD0EDBA407D059
:1002C000E66AFE0EDBCFE6FF23DAE552E552FD0ECD
:1002D000DBA208D0010EE66EFE0EDBCFE6FF18DAD9
:1002E000E552E552FE0EDB500C6A530F0B6E0F0EFB
:1002F0000C220BC0DEFF0CC0DDFFDECFE9FFDDCF3F
:10030000EAFFFD0EDBCFEFFF020EE15C02E2E16AE5
:10031000E552E16EE552E7CFD9FF1200D9CFE6FFF3
:10032000E1CFD9FF020EE126FD0EDB500FE0FE0EFD
:10033000EA6ADB34FE0BEA36E96E4E0EE926010E60
:10034000EA22EECFDEFFEDCFDDFF0ED0FE0EEA6A31
:10035000DB34FE0BEA36E96E480EE926010EEA228E
:10036000EECFDEFFEDCFDDFFD9CFE9FFDACFEAFF39
:10037000EE50ED1003E1F36AF46A49D0DECFE9FFF5
:10038000DDCFEAFF020EE926000EEA22FB0EDBCFEC
:10039000EEFFFC0EDBCFEDFFDECFE9FFDDCFEAFFA6
:1003A000EE52FA0EDBCFEFFF400E0B6EDECFE9FF11
:1003B000DDCFEAFF0B50EF16880E0B6EDECFE9FFA4
:1003C000DDCFEAFF0B50EF12FD0EDB500CE0FE0E0E
:1003D000EA6ADB34FE0BEA36E96E4E0EE926010EC0
:1003E000EA22EF740BD0FE0EEA6ADB34FE0BEA362B
:1003F000E96E480EE926010EEA22EF74DECF0BF01B
:10040000DDCF0CF00BC0F3FF0CC0F4FF00D0020EE8
:10041000E15C02E2E16AE552E16EE552E7CFD9FF25
:100420001200D9CFE6FFE1CFD9FF020EE126FE0E82
:10043000DB5020E146C1E9FF47C1EAFFEE52080E5A
:10044000EF6E46C1E9FF47C1EAFF020EE926000E42
:10045000EA22300EEE6E020EED6E46C1E9FF47C194
:10046000EAFF8C0EEF6E4EC1E9FF4FC1EAFF840E2A
:10047000EF6E3DD0FD0EDB50E8240D6EFE0EDB501E
:10048000040DF3500D24040DF3CF0BF0F4CF0CF05A
:10049000000E0B26020E0C220BC0DEFF0CC0DDFF8F
:1004A000840E0B6EDECFE9FFDDCFEAFF0B50EF12BB
:1004B000FD0EDB50E8240D6EFE0EDB50040DF350F4
:1004C0000D24010F040DF3CF0BF0F4CF0CF0000E50
:1004D0000B26020E0C220BC0DEFF0CC0DDFF840ECB
:1004E0000B6EDECFE9FFDDCFEAFF0B50EF12020EFD
:1004F000E15C02E2E16AE552E16EE552E7CFD9FF45
:100500001200D9CFE6FFE1CFD9FF64A84ED0FE0E8E
:10051000EA6ADB34FE0BEA36E96E4E0EE926010E7E
:10052000EA22EE50EFCFEAFFE96E400EEE16EE6AD9
:10053000EE6AEE6AFE0EEA6ADB34FE0BEA36E96E1C
:100540004E0EE926010EEA22EE50EFCFEAFFE96EE9
:10055000EE7CFE0EEA6ADB34FE0BEA36E96E4E0EE6
:10056000E926010EEA22EF74400E0B6EFE0EEA6AD7
:10057000DB34FE0BEA36E96E4E0EE926010EEA2266
:10058000EE50EFCFEAFFE96E0B50EF16FE0EEA6A6F
:10059000DB34FE0BEA36E96E4E0EE926010EEA2246
:1005A000EE50EFCFEAFFE96EEF7CE552E7CFD9FFDF
:1005B0001200646A606A0101406B00D01200010100
:1005C000405114E1646A606A160E616E0F019F0E5D
:1005D0005B6F7B0E606ED08EA284A084F28E64B6B8
:1005E00002D06486FCD70101010E406F12000101A8
:1005F00071514DE1010E716F725149E1010E726F3F
:10060000020E555D0DE14EC1E9FF4FC1EAFFEE520A
:10061000EF6A4EC1E9FF4FC1EAFFC80EEF6E37D057
:10062000550535E1686B44C1E9FF45C1EAFFEE526B
:10063000080EEF6E44C1E9FF45C1EAFF020EE9264C
:10064000000EEA22300EEE6E020EED6E44C1E9FF9E
:1006500045C1EAFF840EEF6E010E686F46C1E9FFE7
:1006600047C1EAFFEE52080EEF6E46C1E9FF47C1EF
:10067000EAFF020EE926000EEA22300EEE6E020EAE
:10068000ED6E46C1E9FF47C1EAFF800EEF6E120032
:100690000101736B746B020E555D1AE146C1E9FFEF
:1006A00047C1EAFFEE52080EEF6E46C1E9FF47C1AF
:1006B000EAFF020EE926000EEA22380EEE6E020E66
:1006C000ED6E46C1E9FF47C1EAFFC80EEF6E1FD0CD
:1006D00059510201365D01015A510201375904E2B4
:1006E00036C259F137C25AF1D1D84EC1E9FF4FC1D4
:1006F000EAFF020EE926000EEA22380EEE6E020E26
:10070000ED6E4EC1E9FF4FC1EAFFC80EEF6E120059
:10071000D9CFE6FFE1CFD9FF020EE126000EDE6E53
:10072000020EDD6EFD0EDB50E8240D6EFE0EDB507A
:10073000040DF3500D24040DF3CF0BF0F4CF0CF0A7
:10074000D9CFE9FFDACFEAFF0B50EE260C50ED22AD
:10075000DECFE9FFDDCFEAFFEF9EFD0EDB500FE1BC
:10076000FE0EEA6ADB34FE0BEA36E96E480EE92635
:10077000010EEA22DECFEEFFDDCFEDFF0ED0FE0E42
:10078000EA6ADB34FE0BEA36E96E4E0EE926010E0C
:10079000EA22DECFEEFFDDCFEDFFDECFE9FFDDCFDA
:1007A000EAFFEF9CDECFE9FFDDCFEAFF040EE9268A
:1007B000000EEA22EF8C020EE15C02E2E16AE552F1
:1007C000E16EE552E7CFD9FF12006498010158BFEE
:1007D0002BD05DAF09D0020E556F745101E158DF87
:1007E0000101726B716B1FD046C1E9FF47C1EAFF7F
:1007F000EE52080EEF6E46C1E9FF47C1EAFF020E56
:10080000E926000EEA22300EEE6E020EED6E46C1B3
:10081000E9FF47C1EAFF8C0EEF6E4EC1E9FF4FC101
:10082000EAFF840EEF6E31D0020130AF0DD001012E
:10083000010E556F735101E12BDF0101726B716B7A
:10084000705101E1D4DE21D00101020E556F46C185
:10085000E9FF47C1EAFFEE52080EEF6E46C1E9FF1D
:1008600047C1EAFF020EE926000EEA22300EEE6EC4
:10087000020EED6E46C1E9FF47C1EAFF840EEF6E3E
:10088000726B716B705101E1B2DE1200D9CFE6FFDD
:10089000E1CFD9FFE652080EDF6E0101595D000E6F
:1008A0005A590BE259C1DFFF545103E1010E546F55
:1008B00004D0540502E1020E546FDF500B6E0C6A37
:1008C0000B50595D596F0C505A595A6F4EC1E9FF80
:1008D0004FC1EAFFEE52DFCFEFFF380E626F020E1C
:1008E000636F58B119D0DF5016E056C1F6FF57C1FB
:1008F000F7FF562B000E57230800F550E66E62C135
:10090000E9FF63C1EAFF622B000E6323E552E75063
:10091000EF6EDF06E8D717D0DF5015E056C1E9FFCC
:1009200057C1EAFF562B000E5723EF50E66E62C107
:10093000E9FF63C1EAFF622B000E6323E552E75033
:10094000EF6EDF06E9D7E552E552E7CFD9FF120097
:10095000D9CFE6FFE1CFD9FF020EE12644C1E9FF7E
:1009600045C1EAFFEE52EFCFDFFFDFCF0BF00B50B8
:1009700001015E5D000E5F5902E25EC1DFFFDF50E4
:100980000B6E0C6A0B505E5D5E6F0C505F595F6FB3
:10099000010EDB6ADF50F36E010EDBCFF4FFF35084
:1009A000F45C16E2010EDB50EA6A380FE96E020EC3
:1009B000EA22EF50E66E5BC1E9FF5CC1EAFF5B2B08
:1009C000000E5C23E552E750EF6E010EDB2AE2D702
:1009D000000ED8805E55000E5F5528E246C1E9FF43
:1009E00047C1EAFFEE52080EEF6E46C1E9FF47C16C
:1009F000EAFF020EE926000EEA22380EEE6E020E23
:100A0000ED6E44C1E9FF45C1EAFFEF50400B07E13D
:100A100046C1E9FF47C1EAFFC80EEF6E06D046C1E6
:100A2000E9FF47C1EAFF880EEF6E28D046C1E9FF13
:100A300047C1EAFFEE52080EEF6E46C1E9FF47C11B
:100A4000EAFF020EE926000EEA22300EEE6E020EDA
:100A5000ED6E46C1E9FF47C1EAFF840EEF6E6051BB
:100A6000611107E005D061C1FAFF01016051F96E23
:100A7000FADF01015D9F705101E1B9DD020EE15C19
:100A800002E2E16AE552E16EE552E7CFD9FF1200DA
:100A9000D9CFE6FFE1CFD9FFE6520101588F020E10
:100AA000E66EE66AE66A540EE66E0F0EE66E7FECC0
:100AB0000EF00B6E050EE15E0B50300EE66EE66A30
:100AC000E66A000EE66E020EE66E7FEC0EF00B6E2E
:100AD000050EE15E0B50648CDF6A030EDF5C10E2F2
:100AE000DF50EA6A690FE96E010EEA22EF6ADF5011
:100AF000EA6A6C0FE96E010EEA22EF6ADF2AEDD78F
:100B0000020EE66EE66AE66A420EE66E010EE66EDA
:100B10007FEC0EF00B6E050EE15E0B50649C010144
:100B2000080E4E6F020E4F6F000E446F020E456F9F
:100B300044C146F145C147F132C241F1415103E19F
:100B4000100E406F13D0010EE66EE66A410EE66E9F
:100B5000010EE66E010EE66EE66A9DEC0DF00B6E80
:100B6000060EE15E0B500101200E406FE552E5528A
:100B7000E7CFD9FF1200800E0201305D5BE1010179
:100B8000C00E586F02013351030A34E0010A0EE02F
:100B9000030A03E00101586B4DD00101760E566F38
:100BA0001C0E576F120E596F5A6B44D03251F66EAD
:100BB000F76AD890F636F736F50EF6261C0EF722B1
:100BC0000900F5CF56F10A00F5CF57F1020E0101E9
:100BD000F76A5625F66E5751F7220800F5CF59F1FE
:100BE000030EF76A5625F66E5751F7220800F5CF27
:100BF0005AF120D0030E325D1AE23251F66EF76AD6
:100C0000D890F636F736F70EF6261C0EF7220900B6
:100C1000F5CF56F10A00F5CF57F156C1F6FF57C18F
:100C2000F7FF0800F5500101596F5A6B02D001011E
:100C3000586B00D01200D9CFE6FFE1CFD9FF020EEA
:100C4000E1260201386B396B30511F0B020A12E0AA
:100C5000030A0DE0010A01E042D00101588F0201B0
:100C600038810101640502E10201388338D00101B5
:100C7000588F35D00101588F020134BF10D0345144
:100C80000F0BE96EEA6AD890E936EA36480EE92693
:100C9000010EEA22EECFDEFFEDCFDDFF0FD03451A3
:100CA0000F0BE96EEA6AD890E936EA364E0EE9266D
:100CB000010EEA22EECFDEFFEDCFDDFFDECFE9FF52
:100CC000DDCFEAFFEF50800B09E0DECFE9FFDDCF9B
:100CD000EAFFEF50040B02E0010E386F00D0010173
:100CE00058AF07D0380E566F020E576F5881020E5C
:100CF000596F020EE15C02E2E16AE552E16EE552F3
:100D0000E7CFD9FF12000F0153A115D044C1E9FF6D
:100D100045C1EAFFEF5080080DE14EC1E9FF4FC128
:100D2000EAFFEF50840806E144C1E9FF45C1EAFF4C
:100D30008C0EEF6E5391629A120060846298648206
:100D40000101010E656F000EE66EE66AE66EE66A68
:100D5000750EE66EE66A9DEC0DF00B6E060EE15E1A
:100D60000B5012000101656B000EE66EE66AE66E3E
:100D7000E66A740EE66EE66A9DEC0DF00B6E060EEA
:100D8000E15E0B506492609462A402D06294FCD73E
:100D90001200D9CFE6FFE1CFD9FFE652FD0E0101E7
:100DA000661553E17E0E6615E8407F0B040DF3CF08
:100DB00044F1F4CF45F1000E4427020E452344C10F
:100DC00046F145C147F1467544C1E9FF45C1EAFF17
:100DD000EF503C0BE842E8420D0835E1DF6A080EAF
:100DE000DF5C23E244C1E9FF45C1EAFF020EE926C8
:100DF000000EEA22EE50EFCFEAFFE96EEF50E66E0A
:100E0000DF50EA6A300FE96E020EEA22E552E7503F
:100E1000EF6E44C1E9FF45C1EAFF020EE926000E6C
:100E2000EA22EE2AEF22DF2ADAD744C1E9FF45C1E0
:100E3000EAFF020EE926000EEA22300EEE6E020EE6
:100E4000ED6E0DD801D03AD805D0FD0E6615040818
:100E500001E159D8E552E552E7CFD9FF120001016F
:100E6000546B706B736B746B686B556B4EC1E9FFA1
:100E70004FC1EAFFEF9E4E754EC1E9FF4FC1EAFF39
:100E8000EF9E4E7546C1E9FF47C1EAFFEF9E586BE2
:100E9000596B5A6B5D6B5E6B5F6B92D8000EE66EA2
:100EA000E66AE66EE66A030EE66EE66A9DEC0DF013
:100EB0000B6E060EE15E0B50E5EF03F0020E010132
:100EC000555D02E145DD1ED0556B68511AE146C102
:100ED000E9FF47C1EAFFEE52080EEF6E46C1E9FF97
:100EE00047C1EAFF020EE926000EEA22300EEE6E3E
:100EF000020EED6E46C1E9FF47C1EAFF8C0EEF6EB0
:100F000001D0686B1200D9CFE6FFE1CFD9FFE652DE
:100F10004EC1E9FF4FC1EAFFEF50400B01E0010E67
:100F2000DF6E01014E75080E405D0CE132C25CFFC0
:100F30000F015C5104E00101100E406F03D001016C
:100F4000040E406F550528E14EC1E9FF4FC1EAFF8D
:100F5000020EE926000EEA22380EEE6E020EED6E4B
:100F600095DC020E0101545D07E14EC1E9FF4FC15E
:100F7000EAFF840EEF6E0FD0DF5007E14EC1E9FFAC
:100F80004FC1EAFFC80EEF6E06D04EC1E9FF4FC158
:100F9000EAFF880EEF6E0FD05DAF0CD0605161118B
:100FA00007E005D061C1FAFF01016051F96EFADF77
:100FB00001015D9F556BE552E552E7CFD9FF120065
:100FC00002013051600BE842E842E842E842E84260
:100FD000000901E058D031510C0A54E00B0A43E0FB
:100FE0000C0A35E0010A26E00B0A22E0020A20E0A2
:100FF000030A1CE0080A10E0010A0CE00F0A08E0EE
:10100000030A01E03FD00101588F080E406F3BD02A
:10101000B2DD39D03DDD37D00101410E566F010EF2
:10102000576F5881010E596F588F2DD004DE2BD089
:101030002BD829D034510101566F576B420E5627D9
:10104000010E57235881010E596F588F1CD0010192
:10105000588F02013451EA6A420FE96E010EEA220A
:1010600032C2EFFF10D0000EE66EE66AE66EE66A68
:10107000020EE66EE66A9DEC0DF00B6E060EE15E6A
:101080000B5001D000D01200D9CFE6FFE1CFD9FF3D
:10109000050EE1260201320510E130511F0B000957
:1010A0000CE10101588F030E0201315D04E10101E1
:1010B000010E646F02D00101646B0201325101E044
:1010C00020D130511F0B020801E01BD134510F0B0E
:1010D000000901E116D134510F0B020801E211D1D0
:1010E000200E0101405D01E00CD1588F020134BF98
:1010F0001AD034510F0BE96EEA6AD890E936EA3615
:10110000480EE926010EEA22EECFDEFFEDCFDDFF2D
:1011100034510F0BEA6A6C0FE96E010EEA22020EDF
:10112000EFCFDBFF19D034510F0BE96EEA6AD8908C
:10113000E936EA364E0EE926010EEA22EECFDEFF50
:10114000EDCFDDFF34510F0BEA6A690FE96E010E36
:10115000EA22020EEFCFDBFFD950020FE96EDACFA1
:10116000EAFFEF50010B03E1000EDF9401D0DF84B2
:1011700034BF10D034510F0BE96EEA6AD890E936CB
:10118000EA36480EE926010EEA22DECFEEFFDDCF79
:10119000EDFF0FD034510F0BE96EEA6AD890E936B3
:1011A000EA364E0EE926010EEA22DECFEEFFDDCF53
:1011B000EDFF030E315D23E1DECFE9FFDDCFEAFF76
:1011C000EF50800B13E034BF09D034510F0BEA6AA3
:1011D0006C0FE96E010EEA22EF8208D034510F0B3A
:1011E000EA6A690FE96E010EEA22EF82840E0B6E45
:1011F000DECFE9FFDDCFEAFF0B50EF1282D0DF74C4
:10120000DECFE9FFDDCFEAFFEF50800B1BE0DECF42
:10121000E9FFDDCFEAFFEF9EDECFE9FFDDCFEAFF9A
:10122000EF8C020EE66EE66ADECFE6FFDDCFE6FF6C
:10123000050EE66EE66A9DEC0DF00B6E060EE15EA5
:101240000B5005D0DECFE9FFDDCFEAFFEF8CDF7476
:10125000D950020FE96EDACFEAFFEF50020B07E137
:10126000DECFE9FFDDCFEAFFEF50800B2DE002017A
:1012700034BF09D034510F0BEA6A6C0FE96E010ECE
:10128000EA22EF9208D034510F0BEA6A690FE96E37
:10129000010EEA22EF923B0E0B6EDECFE9FFDDCFAF
:1012A000EAFF0B50EF16020EE66EE66ADECFE6FFAF
:1012B000DDCFE6FF050EE66EE66A9DEC0DF00B6EE7
:1012C000060EE15E0B5008D03B0E0B6EDECFE9FF41
:1012D000DDCFEAFF0B50EF16020134510F0B0C6A01
:1012E000530F0B6E0F0E0C22030E0BC0DBFF040E10
:1012F0000CC0DBFF030EDBCFE9FF040EDBCFEAFF00
:10130000EF90050EE15C02E2E16AE552E16EE55222
:06131000E7CFD9FF120037
:0A131600020130511F0B010801E035
:101320004AD03051600BE842E842E842E842E842E5
:10133000010801E040D0345103E0340501E03BD026
:101340003151220A33E0030A26E0010A17E0210A9C
:101350000EE0010A01E02FD00101910E566F010E3F
:10136000576F080E596F5A6B5881588F24D001015E
:10137000910E566F010E576F588F1DD036C25EF119
:1013800037C25FF10101800E5B6F020E5C6F606B14
:10139000616B5D8F10D00101800E566F020E576F8A
:1013A000070E596F5A6BC10E586F05D032C28CF1BF
:1013B0000101588F00D012000201806B4B0E816F2B
:1013C000826B836B846B856B080E866F0101806B6B
:1013D0001A0EE66E010EE66E57EC01F0E552E5528C
:1013E0001E0EE66E020EE66E57EC01F0E552E55277
:1013F000200EE66E600EE66E020EE66EE66A020EE5
:10140000E66E8EEC01F00B6E050EE15E0B50F3CF35
:1014100088F1F4CF89F101018A6B8B6B816B12002B
:10142000D9CFE6FFE1CFD9FFFD0EDBCF06F0FE0EF0
:10143000DBCF07F0050E061801E1075002E0000EB1
:1014400031D0FB0EDBCF0BF0FC0EDBCF0CF001013B
:1014500088510B1802E189510C1813E1200EE66E39
:10146000600EE66E020EE66EE66A020EE66E8EEC28
:1014700001F00B6E050EE15E0B50F3CF88F1F4CF57
:1014800089F1FB0EDBCF0BF0FC0EDBCF0CF0010182
:101490008A510B1802E18B510C1802E1816B866BAB
:1014A000010E00D0E552E7CFD9FF1200D9CFE6FFF9
:1014B000E1CFD9FF0101806B8851891102E1000E53
:1014C00008D088C1E9FF89C1EAFFEF50800B01E035
:1014D000010E000945E1FC0EDBCF0BF088C1E9FFEE
:1014E00089C1EAFFEE52EF50D8800B5408E288C160
:1014F000E9FF89C1EAFFEE52FC0EEFCFDBFF806B04
:10150000FC0EDB50805D19E28051EA6A600FE96EE3
:10151000020EEA22EF50E66E8051E76EFD0EDBCF41
:10152000E9FFFE0EDBCFEAFFE750E926000EEA22D4
:10153000E552E750EF6E802BE3D7200EE66E600E8B
:10154000E66E020EE66EE66A020EE66E8EEC01F0C4
:101550000B6E050EE15E0B50F3CF88F1F4CF89F1ED
:101560000101805100D0E552E7CFD9FF1200D9CF59
:10157000E6FFE1CFD9FFA094010181510CE1FD0EFE
:10158000DBCF82F1FE0EDBCF83F1FC0EDBCF86F1E9
:10159000010E876F816FA084E552E7CFD9FF12005B
:1015A000D9CFE6FFE1CFD9FF030EE126A0940101D8
:1015B000815102E0A0842FD0DF6AFD0EDBCF06F060
:1015C000FE0EDBCF07F0DE5206C0DEFF07C0DDFFF8
:1015D000DD52DF2ADF500B6E0C6AFF0E0B1801E1A3
:1015E0000C5001E10BD0010EDBCFE9FFDB2A020E2C
:1015F000DBCFEAFF01E3DB2AEF50EBE1FD0EDBCFAF
:1016000082F1FE0EDBCF83F1DFCF86F10101010E07
:10161000876F816FA084030EE15C02E2E16AE5520C
:10162000E16EE552E7CFD9FF1200D9CFE6FFE1CF57
:10163000D9FF030EE126A0940101815102E0A084AC
:1016400030D0DF6AFD0EDBCF06F0FE0EDBCF07F0F9
:10165000DE5206C0DEFF07C0DDFFDD52DF2ADF50AD
:101660000B6E0C6AFF0E0B1801E10C5001E10CD05F
:10167000010EDBCFF6FFDB2A020EDBCFF7FF01E323
:10168000DB2A0800F550EAE1FD0EDBCF82F1FE0E09
:10169000DBCF83F1DFCF86F10101876B010E816F14
:1016A000A084030EE15C02E2E16AE552E16EE552DC
:1016B000E7CFD9FF1200D9CFE6FFE1CFD9FF020E65
:1016C000E126A09401018A518B1102E1000E08D09D
:1016D0008AC1E9FF8BC1EAFFEF50800B01E0010EE8
:1016E000000902E0A08487D0030E815D01E1816BD7
:1016F000815102E1A0847FD0020E815D16E1E66A8D
:10170000000EE66EE66A010EE66E020EE66E8EECE6
:1017100001F00B6E050EE15E0B50F3CF8AF1F4CFB2
:101720008BF10101030E816F65D0810563E1200E0D
:101730000B6E0C6A86510B5C000E0C5803E2200EF7
:10174000DF6E02D086C1DFFFDF50865D866F400E00
:10175000846F020E856F010EDFCFDBFF875117E12B
:10176000010EDB5013E082C1F6FF83C1F7FF0800D2
:10177000F55084C1E9FF85C1EAFFEF6E842B000EAE
:101780008523822B8323010EDB06EAD715D0010EB9
:10179000DB5012E082C1E9FF83C1EAFFEF5084C150
:1017A000E9FF85C1EAFFEF6E842B000E8523822BB3
:1017B0008323010EDB06EBD7865108E1200EDF5CA8
:1017C00003E1020E816F02D0030E816FDFCFE6FFCF
:1017D000400EE66E020EE66E010EE66E020EE66E3C
:1017E0008EEC01F00B6E050EE15E0B50F3CF8AF12B
:1017F000F4CF8BF1A084020EE15C02E2E16AE552D3
:0A180000E16EE552E7CFD9FF1200B8
:06180A00DACFE4FFE2CF9B
:10181000DAFFE9CFE4FFEACFE4FFF6CFE4FFF7CF4A
:10182000E4FFF5CFE4FFF3CFE4FFF4CFE4FFFACF1A
:10183000E4FF00EE00F00B0EE80403E3EECFE4FF5C
:10184000FBD700EE0BF0030EE80403E3EECFE4FF5A
:10185000FBD7E652A5EC00F0E55200EE0DF0030ECA
:10186000E80403E3E5CFEDFFFBD700EE0AF00B0E33
:10187000E80403E3E5CFEDFFFBD7E5CFFAFFE5CFC3
:10188000F4FFE5CFF3FFE5CFF5FFE5CFF7FFE5CFB9
:10189000F6FFE5CFEAFFE5CFE9FFE5CFDAFF11007C
:1018A000D8CFE4FFE0CFE4FFE46EDACFE4FFE2CF8D
:1018B000DAFFE65200000000E552E5CFDAFFE5501E
:1018C000E5CFE0FFE5CFD8FF100073D8010140510C
:1018D00002E1DFEC02F0A2D80001A851030A2DE0DA
:1018E000010A14E0030A0EE0010A01E02CD0D2D86C
:1018F000000907E0D8D80001A76F81880001020E17
:10190000A86F21D00001020EA86F1DD08150400B9E
:101910000EE08150800B0BE10000946A0000A7C02C
:1019200082FF000081980001030EA86F05D081AEF0
:1019300003D00001010EA86F06D081BC03D09468CB
:101940000001A86B00D00001A85103E00001A80528
:101950002EE18150800B24E01F0E0001A05D20E2EB
:10196000818A81BEFED7000000000001A051EA6A12
:10197000600FE96E000EEA2282CFEFFF3B0E825C21
:1019800003E10001010EA46F819A0001A02B000168
:10199000A051EA6A600FE96E000EEA22EF6A07D0F2
:1019A0001F0E0001A05D03E30001010EA46F93D799
:1019B0001200D9CFE6FFE1CFD9FFE652826A816AF1
:1019C000806A380E776EF00E786E9468C00E936E53
:1019D00092680001A36BA46B7E6A7F6AF26ADF6A79
:1019E000DF500B6E0C6A200E0B5C000E0C5809E2E7
:1019F000DF50EA6A600FE96E000EEA22EF6ADF2A22
:101A0000EFD70001A06BA16BA56BA66BA86B15ECC3
:101A100000F0E552E552E7CFD9FF1200200E010198
:101A2000E76E4019E8AE02D0E73402D0E750405DDF
:101A300003E36450020B01E02CD00001A35113E139
:101A4000200EE66E800EE66E000EE66E56EC0AF094
:101A5000E552E552E5520001A16FA151000803E2F1
:101A6000010EA36FA26B0101815111E10001A4518C
:101A70000EE0A0C0E6FF600EE66E000EE66EB7EC6C
:101A80000AF0E552E552E5520001A06BA46B5BEC55
:101A90000BF012000001A35103E0010E03D002D0AD
:101AA000000E00D01200D9CFE6FFE1CFD9FFE652F9
:101AB000DF6A0001A3510DE0A251EA6A800FE96ECE
:101AC000000EEA22EFCFDFFFA22BA151A25D01E1C0
:101AD000A36BDF5000D0E552E552E7CFD9FF1200EB
:101AE00012001200120012008BEF09F01200DCEF5E
:101AF00009F00101640520E1010165051DE1A094E3
:101B0000F0DF64920101656B0001100EAA6F0E0EEA
:101B1000AB6FAA07000EAB5BAA51AB11FAE164846C
:101B2000080EAA6F070EAB6FAA07000EAB5BAA5197
:101B3000AB11FAE16494A0841200D9CFE6FFE1CFA3
:101B4000D9FFFD0EDBCF06F0FE0EDBCF07F0050E52
:101B5000061801E1075039E0E868061802E17F0E37
:101B6000071831E0030E061801E107502AE0020EC3
:101B7000061801E1075023E0010E061801E10750A5
:101B80001CE0740E061801E1075015E0750E0618EA
:101B900001E107500EE0730E061801E1075007E05F
:101BA000720E061801E1075001E010D00FD09ADF45
:101BB0000DD096DF0BD095DF09D099DF07D096DFE7
:101BC00005D092DF03D08FDF01D000D0010E00D00E
:081BD000E552E7CFD9FF120036
:081BD800280EF66E000EF76EF8
:101BE000000EF86E01010900F5507A6F0900F550FA
:101BF0007B6F03E17A6701D03DD00900F550756F26
:101C00000900F550766F0900F550776F090009005B
:101C1000F550E96E0900F550EA6E09000900090067
:101C2000F550786F0900F550796F09000900F6CF7B
:101C30007CF1F7CF7DF1F8CF7EF175C1F6FF76C16B
:101C4000F7FF77C1F8FF0101785302E1795307E00C
:101C50000900F550EE6E7807F8E27907F9D77CC1F4
:101C6000F6FF7DC1F7FF7EC1F8FF01017A07000E84
:061C70007B5BBFD71200F0
:0A1C76001201000202000008D80469
:101C80000CF800010102000109024300020100C03A
:101C900031090400000102020100052400100104C2
:101CA0002402020524060001052401000107058124
:101CB000030A000109040100020A000000070502EE
:101CC000022000000705820220000004030904141A
:101CD000035300500052004F0047002000440043CF
:101CE0000043001203430041004E005F00550053C3
:0D1CF0000042003400881CCB1CCF1CE31CFC
:021CFE00FE0ED8
:101D0000E3CFE9FFFF0EE3CFEAFFE9CFF3FFEACF2E
:101D1000F4FFFB0EE35003E1FC0EE35009E0FB0E81
:101D2000E30602E2FC0EE306FD0EE350EE6EF1D791
:021D300012009F
:0E1D3200000EF36E00EE00F0030E01D812005A
:101D4000EA6002D0EE6AFCD7F350E9601200EE6A56
:021D5000FCD7BE
:0E1D520011EE00F021EE00F0F86A0A9CECECB5
:0E1D60000DF0B7EC0EF065EC0CF0FBD71200A6
:021D6E00120061
:020000040030CA
:0100000000FF
:0100010032CC
:0100020001FC
:010003001EDE
:0100050000FA
:010006008178
:0100080003F4
:01000900C036
:01000A0003F2
:01000B00E014
:01000C0003F0
:01000D0040B2
:00000001FF
