:020000040000FA
:06000000000017EF05F0FF
:0400080020EF04F0F1
:040018003EEF04F0C3
:10084000000077BE03D077BA01D006D06F88779AC0
:10085000779E769A779E11000F0177A009D0779046
:100860007798108776900E017F87768800011100B7
:1008700077980E017F97000176801100100071BEFD
:1008800003D081B070D0FBD76F500F0B0C6E72503D
:10089000F00B0C10726E0D0E126E0FEE61F010EE7A
:1008A00061F0EECFE6FF122EFCD7609E00EE61F005
:1008B00011EE00F03A0EE66E62B703D0530EE66E0C
:1008C00002D0580EE66EEE508DEC05F07EC0E6FFCD
:1008D0007FC0E6FFEE508DEC05F07EC0E6FF7FC0E6
:1008E000E6FF62B703D0E92AE92A0ED0EE508DEC7C
:1008F00005F07EC0E6FF7FC0E6FFEE508DEC05F010
:100900007EC0E6FF7FC0E6FFEECF89F089BD03D051
:100910004E0EE66E03D0520EE66E899D896701D0B9
:1009200009D0EE508DEC05F07EC0E6FF7FC0E6FFFB
:10093000892FF7D73B0EE66EE150136E11EE00F0F3
:10094000000E946E81B2FED7818A81A2FDD7E6CFD8
:1009500082FF00000000819A00000000132EF2D7F1
:10096000FF0E946E8CD7866BFF0E946E81A05CD0C8
:10097000818881B0FED7000081983A0E825C54E1F4
:1009800081A0FED7818881B0FED700008198530EE8
:10099000825C04E0580E825C03E046D0869701D06A
:1009A0008687886B20EE18F081A0FED7818881B001
:1009B000FED7000081983B0E825C03E082CFDEFF11
:1009C000F3D782CFDEFF20EE18F010EE6FF0DECF0F
:1009D0007CF0DECF7DF0A1EC05F0E66E4E0EDF5C24
:1009E00005E0520EDF5C01E0F2D78685D92AE12AC4
:1009F00086B702D0E12AE12A3B0EDF5C09E0DECFB8
:100A00007CF0DECF7DF0A1EC05F0E66E882BF4D70C
:100A1000885186B54009736F080E86B77013866BD0
:100A20000A0E146E7AEC05F081983FEF04F0D19035
:100A30000001F26A0F015D6B5C6B5F6B5E6B5B6963
:100A40000001200E926E0B0E936E816A8184819854
:100A5000819AFF0E946EE06A7F6A6F8EB00E726E9E
:100A6000728A0F01606A306B208D108D0E017D6BD4
:100A7000806B906BA06BB06BC06BD06B7F97030EDD
:100A8000436F9E0E446F030E456F0001200E706E83
:100A90000EEEF8F0EE6AE962FDD7719E719C776AFE
:100AA0006F6ABB6A9F6AA26AA06A776A756A880ED3
:100AB0006F6E0F01030E206F106F116B126B156BB1
:100AC00000016F6A030E6E6F230EA56E9F6AA26A05
:100AD000A06AF16AF06A9E6AA16A776AB10E786EBE
:100AE000B10E766E819C818E3FEF04F00F0110876E
:100AF000000112000F0120B7FED7000100EE6EF0DA
:100B00001FEE20F0EE50E66E7C0EE962FBD70F017F
:100B100020B7FED7208700011200816F81390F0BAB
:100B2000300F7E6F390E7E6502D0070E7E270F0EC6
:100B30008115300F7F6F390E7F6502D0070E7F273A
:100B40001200300E7C5F090E7C6502D0070E7C5FC0
:100B50007C51826F823B300E7D5F090E7D6502D035
:0A0B6000070E7D5F7D518211120027
:020000040030CA
:040000001513661C52
:020005008981EF
:060008000FC00FE00F40E5
:00000001FF
